{
  "contractName": "Lottery",
  "abi": [
    {
      "constant": true,
      "inputs": [],
      "name": "manage",
      "outputs": [
        {
          "name": "",
          "type": "address"
        }
      ],
      "payable": false,
      "stateMutability": "view",
      "type": "function"
    },
    {
      "inputs": [],
      "payable": false,
      "stateMutability": "nonpayable",
      "type": "constructor"
    },
    {
      "constant": false,
      "inputs": [
        {
          "name": "termNum",
          "type": "uint256"
        }
      ],
      "name": "joinGame",
      "outputs": [],
      "payable": false,
      "stateMutability": "nonpayable",
      "type": "function"
    },
    {
      "constant": false,
      "inputs": [
        {
          "name": "termNum",
          "type": "uint256"
        }
      ],
      "name": "pickWinner",
      "outputs": [],
      "payable": false,
      "stateMutability": "nonpayable",
      "type": "function"
    },
    {
      "constant": true,
      "inputs": [],
      "name": "queryBalance",
      "outputs": [
        {
          "name": "",
          "type": "uint256"
        }
      ],
      "payable": false,
      "stateMutability": "view",
      "type": "function"
    },
    {
      "constant": true,
      "inputs": [
        {
          "name": "termNum",
          "type": "uint256"
        }
      ],
      "name": "queryWinner",
      "outputs": [
        {
          "name": "",
          "type": "address"
        }
      ],
      "payable": false,
      "stateMutability": "view",
      "type": "function"
    }
  ],
  "bytecode": "0x608060405234801561001057600080fd5b50336000806101000a81548173ffffffffffffffffffffffffffffffffffffffff021916908373ffffffffffffffffffffffffffffffffffffffff1602179055506105f8806100606000396000f30060806040526004361061006d576000357c0100000000000000000000000000000000000000000000000000000000900463ffffffff16806336f40c6114610072578063a56867ca1461009d578063ba2ee65c1461010a578063efaa55a014610161578063f737d21d1461018e575b600080fd5b34801561007e57600080fd5b506100876101bb565b6040518082815260200191505060405180910390f35b3480156100a957600080fd5b506100c8600480360381019080803590602001909291905050506101da565b604051808273ffffffffffffffffffffffffffffffffffffffff1673ffffffffffffffffffffffffffffffffffffffff16815260200191505060405180910390f35b34801561011657600080fd5b5061011f610217565b604051808273ffffffffffffffffffffffffffffffffffffffff1673ffffffffffffffffffffffffffffffffffffffff16815260200191505060405180910390f35b34801561016d57600080fd5b5061018c6004803603810190808035906020019092919050505061023c565b005b34801561019a57600080fd5b506101b9600480360381019080803590602001909291905050506102b6565b005b60003073ffffffffffffffffffffffffffffffffffffffff1631905090565b60006003600083815260200190815260200160002060009054906101000a900473ffffffffffffffffffffffffffffffffffffffff169050919050565b6000809054906101000a900473ffffffffffffffffffffffffffffffffffffffff1681565b600260008281526020019081526020016000203390806001815401808255809150509060018203906000526020600020016000909192909190916101000a81548173ffffffffffffffffffffffffffffffffffffffff021916908373ffffffffffffffffffffffffffffffffffffffff1602179055505050565b60008060009054906101000a900473ffffffffffffffffffffffffffffffffffffffff1673ffffffffffffffffffffffffffffffffffffffff163373ffffffffffffffffffffffffffffffffffffffff1614151561031357600080fd5b61031c8261042c565b9050600073ffffffffffffffffffffffffffffffffffffffff166003600084815260200190815260200160002060009054906101000a900473ffffffffffffffffffffffffffffffffffffffff1673ffffffffffffffffffffffffffffffffffffffff1614151561038c57600080fd5b60026000838152602001908152602001600020818154811015156103ac57fe5b9060005260206000200160009054906101000a900473ffffffffffffffffffffffffffffffffffffffff166003600084815260200190815260200160002060006101000a81548173ffffffffffffffffffffffffffffffffffffffff021916908373ffffffffffffffffffffffffffffffffffffffff1602179055505050565b60008060008060009054906101000a900473ffffffffffffffffffffffffffffffffffffffff1673ffffffffffffffffffffffffffffffffffffffff163373ffffffffffffffffffffffffffffffffffffffff1614151561048c57600080fd5b6000809054906101000a900473ffffffffffffffffffffffffffffffffffffffff164260026000878152602001908152602001600020604051808473ffffffffffffffffffffffffffffffffffffffff1673ffffffffffffffffffffffffffffffffffffffff166c01000000000000000000000000028152601401838152602001828054801561057157602002820191906000526020600020905b8160009054906101000a900473ffffffffffffffffffffffffffffffffffffffff1673ffffffffffffffffffffffffffffffffffffffff1681526020019060010190808311610527575b5050935050505060405180910390206001900491506002600085815260200190815260200160002080549050828115156105a757fe5b06905080600160008681526020019081526020016000208190555080925050509190505600a165627a7a723058204f685b78a1a12b45272e23e61ad130504f2bb8af2a5ef9da4fdfca558cf24e330029",
  "source": "pragma solidity ^0.4.23;\n\ncontract Lottery\n{\n      address public manage;\n\n      mapping (uint256=>uint256) luckNums;\n\n      mapping (uint256=>address[]) players;\n\n      mapping (uint256=>address) winners;\n \n      \n      uint256 constant NONE = 0;\n\n//构造函数\n       constructor() public {\n            manage = msg.sender;\n  }\n  \n  \n  function joinGame(uint termNum) public{\n      players[termNum].push(msg.sender);\n  }\n\n//选择幸运儿\nfunction pickWinner(uint termNum) public{\n    require(msg.sender == manage);\n    uint256 luckNum = pickLuckNum(termNum);\n    require(winners[termNum] == address(0));\n    winners[termNum] = players[termNum][luckNum];\n}\n\n\n//生成幸运数\n      function  pickLuckNum(uint termNum) private returns(uint256){\n          require(msg.sender == manage);\n          uint encode = uint(keccak256(manage,now,players[termNum]));\n          uint256 luckNum = uint256(encode)%players[termNum].length;\n          luckNums[termNum] = luckNum;\n          return luckNum;\n      }\n\n//查询合约余额\n      function queryBalance() public view returns(uint){\n          return this.balance;\n      }\n//查询幸运儿\n      function queryWinner(uint256 termNum) public view returns(address){\n         return winners[termNum];\n      }\n}",
  "sourcePath": "/media/jayden/E4B0C898B0C8729A/blockChain/truffle/luck/contracts/Lottery.sol",
  "compiler": {
    "name": "solc",
    "version": "0.4.23+commit.124ca40d.Emscripten.clang"
  },
  "schemaVersion": "2.0.0",
  "updatedAt": "2018-06-08T04:47:25.682Z"
}